{
  "_format": "hh-sol-artifact-1",
  "contractName": "MimirBondingCurveSale",
  "sourceName": "contracts/MimirBondingCurveSale.sol",
  "abi": [
    {
      "inputs": [],
      "stateMutability": "nonpayable",
      "type": "constructor"
    },
    {
      "anonymous": false,
      "inputs": [
        {
          "indexed": true,
          "internalType": "address",
          "name": "account",
          "type": "address"
        },
        {
          "indexed": false,
          "internalType": "uint256",
          "name": "userShare",
          "type": "uint256"
        },
        {
          "indexed": false,
          "internalType": "uint256",
          "name": "mimirAmount",
          "type": "uint256"
        }
      ],
      "name": "Claimed",
      "type": "event"
    },
    {
      "anonymous": false,
      "inputs": [
        {
          "indexed": true,
          "internalType": "address",
          "name": "previousOwner",
          "type": "address"
        },
        {
          "indexed": true,
          "internalType": "address",
          "name": "newOwner",
          "type": "address"
        }
      ],
      "name": "OwnershipTransferred",
      "type": "event"
    },
    {
      "anonymous": false,
      "inputs": [
        {
          "indexed": true,
          "internalType": "address",
          "name": "account",
          "type": "address"
        },
        {
          "indexed": false,
          "internalType": "uint256",
          "name": "amount",
          "type": "uint256"
        }
      ],
      "name": "Received",
      "type": "event"
    },
    {
      "anonymous": false,
      "inputs": [
        {
          "indexed": false,
          "internalType": "uint256",
          "name": "saleStatTime",
          "type": "uint256"
        },
        {
          "indexed": false,
          "internalType": "uint256",
          "name": "saleEndTime",
          "type": "uint256"
        }
      ],
      "name": "SaleStarted",
      "type": "event"
    },
    {
      "inputs": [],
      "name": "END",
      "outputs": [
        {
          "internalType": "uint256",
          "name": "",
          "type": "uint256"
        }
      ],
      "stateMutability": "view",
      "type": "function"
    },
    {
      "inputs": [],
      "name": "MIMIRTOKEN",
      "outputs": [
        {
          "internalType": "contract IERC20",
          "name": "",
          "type": "address"
        }
      ],
      "stateMutability": "view",
      "type": "function"
    },
    {
      "inputs": [],
      "name": "MINIMAL_PROVIDE_AMOUNT",
      "outputs": [
        {
          "internalType": "uint256",
          "name": "",
          "type": "uint256"
        }
      ],
      "stateMutability": "view",
      "type": "function"
    },
    {
      "inputs": [],
      "name": "START",
      "outputs": [
        {
          "internalType": "uint256",
          "name": "",
          "type": "uint256"
        }
      ],
      "stateMutability": "view",
      "type": "function"
    },
    {
      "inputs": [],
      "name": "TOTAL_DISTRIBUTE_AMOUNT",
      "outputs": [
        {
          "internalType": "uint256",
          "name": "",
          "type": "uint256"
        }
      ],
      "stateMutability": "view",
      "type": "function"
    },
    {
      "inputs": [],
      "name": "claim",
      "outputs": [],
      "stateMutability": "nonpayable",
      "type": "function"
    },
    {
      "inputs": [],
      "name": "owner",
      "outputs": [
        {
          "internalType": "address",
          "name": "",
          "type": "address"
        }
      ],
      "stateMutability": "view",
      "type": "function"
    },
    {
      "inputs": [
        {
          "internalType": "address",
          "name": "",
          "type": "address"
        }
      ],
      "name": "provided",
      "outputs": [
        {
          "internalType": "uint256",
          "name": "",
          "type": "uint256"
        }
      ],
      "stateMutability": "view",
      "type": "function"
    },
    {
      "inputs": [],
      "name": "renounceOwnership",
      "outputs": [],
      "stateMutability": "nonpayable",
      "type": "function"
    },
    {
      "inputs": [
        {
          "internalType": "contract IERC20",
          "name": "mimirToken_",
          "type": "address"
        }
      ],
      "name": "setTokenForSale",
      "outputs": [],
      "stateMutability": "nonpayable",
      "type": "function"
    },
    {
      "inputs": [],
      "name": "startSale",
      "outputs": [],
      "stateMutability": "nonpayable",
      "type": "function"
    },
    {
      "inputs": [],
      "name": "totalProvided",
      "outputs": [
        {
          "internalType": "uint256",
          "name": "",
          "type": "uint256"
        }
      ],
      "stateMutability": "view",
      "type": "function"
    },
    {
      "inputs": [
        {
          "internalType": "address",
          "name": "newOwner",
          "type": "address"
        }
      ],
      "name": "transferOwnership",
      "outputs": [],
      "stateMutability": "nonpayable",
      "type": "function"
    },
    {
      "inputs": [],
      "name": "withdrawMimir",
      "outputs": [],
      "stateMutability": "nonpayable",
      "type": "function"
    },
    {
      "inputs": [],
      "name": "withdrawProvidedETH",
      "outputs": [],
      "stateMutability": "nonpayable",
      "type": "function"
    },
    {
      "inputs": [],
      "name": "withdrawUnclaimedMimir",
      "outputs": [],
      "stateMutability": "nonpayable",
      "type": "function"
    },
    {
      "stateMutability": "payable",
      "type": "receive"
    }
  ],
  "bytecode": "0x6080604052682086ac351052600000600455600060055534801561002257600080fd5b50600061003761008660201b61040a1760201c565b600080546001600160a01b0319166001600160a01b0383169081178255604051929350917f8be0079c531659141344cd1fd0a4f28419497f9722a3daafe3b4186f6b6457e0908290a35061008a565b3390565b611231806100996000396000f3fe6080604052600436106100f75760003560e01c8063aa1cf2a21161008a578063efe7a50411610059578063efe7a50414610398578063f2fde38b146103ad578063f6530090146103e0578063f9c6ffd1146103f55761022b565b8063aa1cf2a214610344578063b66a0e5d14610359578063ba9a061a1461036e578063e43608d8146103835761022b565b80635b655e12116100c65780635b655e12146102b6578063715018a6146102e75780638da5cb5b146102fc5780639ddb9ee1146103115761022b565b806302e3cb0b146102305780632187d445146102575780632a0722a61461028c5780634e71d92d146102a15761022b565b3661022b57426001541115610153576040805162461bcd60e51b815260206004820181905260248201527f546865206f66666572696e6720686173206e6f74207374617274656420796574604482015290519081900360640190fd5b6002544211156101aa576040805162461bcd60e51b815260206004820152601e60248201527f546865206f66666572696e672068617320616c726561647920656e6465640000604482015290519081900360640190fd5b6005805434908101909155600660006101c161040a565b6001600160a01b031681526020810191909152604001600020805490910190556101e961040a565b6001600160a01b03167f88a5966d370b9919b20f3e2c13ff65706f196a4e32cc2c12bf57088f88525874346040518082815260200191505060405180910390a2005b600080fd5b34801561023c57600080fd5b5061024561040e565b60408051918252519081900360200190f35b34801561026357600080fd5b5061028a6004803603602081101561027a57600080fd5b50356001600160a01b0316610414565b005b34801561029857600080fd5b506102456104f8565b3480156102ad57600080fd5b5061028a6104fe565b3480156102c257600080fd5b506102cb6106d8565b604080516001600160a01b039092168252519081900360200190f35b3480156102f357600080fd5b5061028a6106e7565b34801561030857600080fd5b506102cb610789565b34801561031d57600080fd5b506102456004803603602081101561033457600080fd5b50356001600160a01b0316610798565b34801561035057600080fd5b506102456107aa565b34801561036557600080fd5b5061028a6107b0565b34801561037a57600080fd5b50610245610856565b34801561038f57600080fd5b5061028a61085c565b3480156103a457600080fd5b5061024561098d565b3480156103b957600080fd5b5061028a600480360360208110156103d057600080fd5b50356001600160a01b0316610993565b3480156103ec57600080fd5b5061028a610a8b565b34801561040157600080fd5b5061028a610bd5565b3390565b60055481565b61041c61040a565b6000546001600160a01b0390811691161461046c576040805162461bcd60e51b815260206004820181905260248201526000805160206111b2833981519152604482015290519081900360640190fd5b600780546001600160a01b0319166001600160a01b038316908117909155604080516370a0823160e01b815230600482015290516370a0823191602480820192602092909190829003018186803b1580156104c657600080fd5b505afa1580156104da573d6000803e3d6000fd5b505050506040513d60208110156104f057600080fd5b505160035550565b60045481565b600254421161050c57600080fd5b60006006600061051a61040a565b6001600160a01b03166001600160a01b03168152602001908152602001600020541161054557600080fd5b60006006600061055361040a565b6001600160a01b03166001600160a01b0316815260200190815260200160002054905060006006600061058461040a565b6001600160a01b03168152602081019190915260400160002055600454600554106106425760006105cc6005546105c684600354610cc590919063ffffffff16565b90610d27565b90506105ec6105d961040a565b6007546001600160a01b03169083610d69565b6105f461040a565b6001600160a01b03167f987d620f307ff6b94d58743cb7a7509f24071586a77759b77c2d4e29f75a2f9a8383604051808381526020018281526020019250505060405180910390a2506106d5565b61064a61040a565b6001600160a01b03166108fc829081150290604051600060405180830381858888f19350505050158015610682573d6000803e3d6000fd5b5061068b61040a565b6001600160a01b03167f987d620f307ff6b94d58743cb7a7509f24071586a77759b77c2d4e29f75a2f9a826000604051808381526020018281526020019250505060405180910390a25b50565b6007546001600160a01b031681565b6106ef61040a565b6000546001600160a01b0390811691161461073f576040805162461bcd60e51b815260206004820181905260248201526000805160206111b2833981519152604482015290519081900360640190fd5b600080546040516001600160a01b03909116907f8be0079c531659141344cd1fd0a4f28419497f9722a3daafe3b4186f6b6457e0908390a3600080546001600160a01b0319169055565b6000546001600160a01b031690565b60066020526000908152604090205481565b60035481565b6107b861040a565b6000546001600160a01b03908116911614610808576040805162461bcd60e51b815260206004820181905260248201526000805160206111b2833981519152604482015290519081900360640190fd5b4260018190556203f4808101600281905560408051928352602083019190915280517f87d03dcfa12666a6f670d52387c414c3147775a8cc623d78088c0e23b4a903469281900390910190a1565b60015481565b61086461040a565b6000546001600160a01b039081169116146108b4576040805162461bcd60e51b815260206004820181905260248201526000805160206111b2833981519152604482015290519081900360640190fd5b426002541061090a576040805162461bcd60e51b815260206004820152601e60248201527f546865206f66666572696e67206d75737420626520636f6d706c657465640000604482015290519081900360640190fd5b600454600554101561094d5760405162461bcd60e51b815260040180806020018281038252602a815260200180611141602a913960400191505060405180910390fd5b610955610789565b6001600160a01b03166108fc479081150290604051600060405180830381858888f193505050501580156106d5573d6000803e3d6000fd5b60025481565b61099b61040a565b6000546001600160a01b039081169116146109eb576040805162461bcd60e51b815260206004820181905260248201526000805160206111b2833981519152604482015290519081900360640190fd5b6001600160a01b038116610a305760405162461bcd60e51b81526004018080602001828103825260268152602001806110f56026913960400191505060405180910390fd5b600080546040516001600160a01b03808516939216917f8be0079c531659141344cd1fd0a4f28419497f9722a3daafe3b4186f6b6457e091a3600080546001600160a01b0319166001600160a01b0392909216919091179055565b610a9361040a565b6000546001600160a01b03908116911614610ae3576040805162461bcd60e51b815260206004820181905260248201526000805160206111b2833981519152604482015290519081900360640190fd5b4260025462278d000110610b3e576040805162461bcd60e51b815260206004820152601a60248201527f5769746864726177616c20756e617661696c61626c6520796574000000000000604482015290519081900360640190fd5b610bd3610b49610789565b600754604080516370a0823160e01b815230600482015290516001600160a01b03909216916370a0823191602480820192602092909190829003018186803b158015610b9457600080fd5b505afa158015610ba8573d6000803e3d6000fd5b505050506040513d6020811015610bbe57600080fd5b50516007546001600160a01b03169190610d69565b565b610bdd61040a565b6000546001600160a01b03908116911614610c2d576040805162461bcd60e51b815260206004820181905260248201526000805160206111b2833981519152604482015290519081900360640190fd5b4260025410610c83576040805162461bcd60e51b815260206004820152601e60248201527f546865206f66666572696e67206d75737420626520636f6d706c657465640000604482015290519081900360640190fd5b60045460055410610b3e5760405162461bcd60e51b815260040180806020018281038252602681526020018061111b6026913960400191505060405180910390fd5b600082610cd457506000610d21565b82820282848281610ce157fe5b0414610d1e5760405162461bcd60e51b81526004018080602001828103825260218152602001806111916021913960400191505060405180910390fd5b90505b92915050565b6000610d1e83836040518060400160405280601a81526020017f536166654d6174683a206469766973696f6e206279207a65726f000000000000815250610dc0565b604080516001600160a01b038416602482015260448082018490528251808303909101815260649091019091526020810180516001600160e01b031663a9059cbb60e01b179052610dbb908490610e64565b505050565b60008183610e4c5760405162461bcd60e51b81526004018080602001828103825283818151815260200191508051906020019080838360005b83811015610e11578181015183820152602001610df9565b50505050905090810190601f168015610e3e5780820380516001836020036101000a031916815260200191505b509250505060405180910390fd5b506000838581610e5857fe5b049150505b9392505050565b6060610eb9826040518060400160405280602081526020017f5361666545524332303a206c6f772d6c6576656c2063616c6c206661696c6564815250856001600160a01b0316610f159092919063ffffffff16565b805190915015610dbb57808060200190516020811015610ed857600080fd5b5051610dbb5760405162461bcd60e51b815260040180806020018281038252602a8152602001806111d2602a913960400191505060405180910390fd5b6060610f248484600085610f2c565b949350505050565b606082471015610f6d5760405162461bcd60e51b815260040180806020018281038252602681526020018061116b6026913960400191505060405180910390fd5b610f7685611088565b610fc7576040805162461bcd60e51b815260206004820152601d60248201527f416464726573733a2063616c6c20746f206e6f6e2d636f6e7472616374000000604482015290519081900360640190fd5b60006060866001600160a01b031685876040518082805190602001908083835b602083106110065780518252601f199092019160209182019101610fe7565b6001836020036101000a03801982511681845116808217855250505050505090500191505060006040518083038185875af1925050503d8060008114611068576040519150601f19603f3d011682016040523d82523d6000602084013e61106d565b606091505b509150915061107d82828661108e565b979650505050505050565b3b151590565b6060831561109d575081610e5d565b8251156110ad5782518084602001fd5b60405162461bcd60e51b8152602060048201818152845160248401528451859391928392604401919085019080838360008315610e11578181015183820152602001610df956fe4f776e61626c653a206e6577206f776e657220697320746865207a65726f206164647265737354686520726571756972656420616d6f756e7420686173206265656e2070726f76696465642154686520726571756972656420616d6f756e7420686173206e6f74206265656e2070726f766964656421416464726573733a20696e73756666696369656e742062616c616e636520666f722063616c6c536166654d6174683a206d756c7469706c69636174696f6e206f766572666c6f774f776e61626c653a2063616c6c6572206973206e6f7420746865206f776e65725361666545524332303a204552433230206f7065726174696f6e20646964206e6f742073756363656564a26469706673582212208f66a9fbc35b03df7865179dd2d80a7c0ad8053c4fea9b0593232dec8839b29e64736f6c63430007040033",
  "linkReferences": {},
  "deployedLinkReferences": {}
}